{
  "_format": "hh-sol-artifact-1",
  "contractName": "ArtsChain",
  "sourceName": "contracts/ArtsChain.sol",
  "abi": [
    {
      "inputs": [],
      "stateMutability": "nonpayable",
      "type": "constructor"
    },
    {
      "inputs": [
        {
          "internalType": "string",
          "name": "_title",
          "type": "string"
        },
        {
          "internalType": "string",
          "name": "_description",
          "type": "string"
        },
        {
          "internalType": "string",
          "name": "_imageUrl",
          "type": "string"
        },
        {
          "internalType": "string",
          "name": "_length",
          "type": "string"
        },
        {
          "internalType": "string",
          "name": "_width",
          "type": "string"
        }
      ],
      "name": "addartwork",
      "outputs": [],
      "stateMutability": "nonpayable",
      "type": "function"
    },
    {
      "inputs": [
        {
          "internalType": "address",
          "name": "_address",
          "type": "address"
        },
        {
          "internalType": "string",
          "name": "_title",
          "type": "string"
        },
        {
          "internalType": "string",
          "name": "_imageUrl",
          "type": "string"
        }
      ],
      "name": "generateID",
      "outputs": [
        {
          "internalType": "string",
          "name": "",
          "type": "string"
        }
      ],
      "stateMutability": "pure",
      "type": "function"
    },
    {
      "inputs": [],
      "name": "getAllTransactions",
      "outputs": [
        {
          "components": [
            {
              "internalType": "string",
              "name": "from",
              "type": "string"
            },
            {
              "internalType": "address",
              "name": "fromAd",
              "type": "address"
            },
            {
              "internalType": "string",
              "name": "to",
              "type": "string"
            },
            {
              "internalType": "address",
              "name": "toAd",
              "type": "address"
            },
            {
              "internalType": "uint256",
              "name": "date",
              "type": "uint256"
            },
            {
              "internalType": "uint256",
              "name": "price",
              "type": "uint256"
            },
            {
              "internalType": "string",
              "name": "artWorkId",
              "type": "string"
            }
          ],
          "internalType": "struct ArtsChain.Transfer[]",
          "name": "",
          "type": "tuple[]"
        }
      ],
      "stateMutability": "view",
      "type": "function"
    },
    {
      "inputs": [
        {
          "internalType": "string",
          "name": "artworkId",
          "type": "string"
        }
      ],
      "name": "getArtWorkById",
      "outputs": [
        {
          "components": [
            {
              "internalType": "address",
              "name": "artist",
              "type": "address"
            },
            {
              "internalType": "address",
              "name": "owner",
              "type": "address"
            },
            {
              "internalType": "string",
              "name": "artistName",
              "type": "string"
            },
            {
              "internalType": "string",
              "name": "artworkId",
              "type": "string"
            },
            {
              "internalType": "string",
              "name": "title",
              "type": "string"
            },
            {
              "internalType": "string",
              "name": "description",
              "type": "string"
            },
            {
              "internalType": "string",
              "name": "imageUrl",
              "type": "string"
            },
            {
              "internalType": "uint256",
              "name": "timestamp",
              "type": "uint256"
            },
            {
              "internalType": "bool",
              "name": "forSale",
              "type": "bool"
            },
            {
              "internalType": "uint256",
              "name": "price",
              "type": "uint256"
            },
            {
              "internalType": "string",
              "name": "length",
              "type": "string"
            },
            {
              "internalType": "string",
              "name": "width",
              "type": "string"
            },
            {
              "internalType": "int256[]",
              "name": "transferHistory",
              "type": "int256[]"
            }
          ],
          "internalType": "struct ArtsChain.Artwork",
          "name": "",
          "type": "tuple"
        }
      ],
      "stateMutability": "view",
      "type": "function"
    },
    {
      "inputs": [
        {
          "internalType": "string",
          "name": "artworkId",
          "type": "string"
        }
      ],
      "name": "getArtWorkByIdGen",
      "outputs": [
        {
          "components": [
            {
              "internalType": "address",
              "name": "artist",
              "type": "address"
            },
            {
              "internalType": "address",
              "name": "owner",
              "type": "address"
            },
            {
              "internalType": "string",
              "name": "artistName",
              "type": "string"
            },
            {
              "internalType": "string",
              "name": "artworkId",
              "type": "string"
            },
            {
              "internalType": "string",
              "name": "title",
              "type": "string"
            },
            {
              "internalType": "string",
              "name": "description",
              "type": "string"
            },
            {
              "internalType": "string",
              "name": "imageUrl",
              "type": "string"
            },
            {
              "internalType": "uint256",
              "name": "timestamp",
              "type": "uint256"
            },
            {
              "internalType": "bool",
              "name": "forSale",
              "type": "bool"
            },
            {
              "internalType": "uint256",
              "name": "price",
              "type": "uint256"
            },
            {
              "internalType": "string",
              "name": "length",
              "type": "string"
            },
            {
              "internalType": "string",
              "name": "width",
              "type": "string"
            },
            {
              "internalType": "int256[]",
              "name": "transferHistory",
              "type": "int256[]"
            }
          ],
          "internalType": "struct ArtsChain.Artwork",
          "name": "",
          "type": "tuple"
        }
      ],
      "stateMutability": "view",
      "type": "function"
    },
    {
      "inputs": [],
      "name": "getArtworkForSale",
      "outputs": [
        {
          "components": [
            {
              "internalType": "address",
              "name": "artist",
              "type": "address"
            },
            {
              "internalType": "address",
              "name": "owner",
              "type": "address"
            },
            {
              "internalType": "string",
              "name": "artistName",
              "type": "string"
            },
            {
              "internalType": "string",
              "name": "artworkId",
              "type": "string"
            },
            {
              "internalType": "string",
              "name": "title",
              "type": "string"
            },
            {
              "internalType": "string",
              "name": "description",
              "type": "string"
            },
            {
              "internalType": "string",
              "name": "imageUrl",
              "type": "string"
            },
            {
              "internalType": "uint256",
              "name": "timestamp",
              "type": "uint256"
            },
            {
              "internalType": "bool",
              "name": "forSale",
              "type": "bool"
            },
            {
              "internalType": "uint256",
              "name": "price",
              "type": "uint256"
            },
            {
              "internalType": "string",
              "name": "length",
              "type": "string"
            },
            {
              "internalType": "string",
              "name": "width",
              "type": "string"
            },
            {
              "internalType": "int256[]",
              "name": "transferHistory",
              "type": "int256[]"
            }
          ],
          "internalType": "struct ArtsChain.Artwork[]",
          "name": "",
          "type": "tuple[]"
        }
      ],
      "stateMutability": "view",
      "type": "function"
    },
    {
      "inputs": [
        {
          "internalType": "string",
          "name": "_artworkId",
          "type": "string"
        },
        {
          "internalType": "address",
          "name": "_owner",
          "type": "address"
        }
      ],
      "name": "getArtworkTransferHistory",
      "outputs": [
        {
          "components": [
            {
              "internalType": "string",
              "name": "from",
              "type": "string"
            },
            {
              "internalType": "address",
              "name": "fromAd",
              "type": "address"
            },
            {
              "internalType": "string",
              "name": "to",
              "type": "string"
            },
            {
              "internalType": "address",
              "name": "toAd",
              "type": "address"
            },
            {
              "internalType": "uint256",
              "name": "date",
              "type": "uint256"
            },
            {
              "internalType": "uint256",
              "name": "price",
              "type": "uint256"
            },
            {
              "internalType": "string",
              "name": "artWorkId",
              "type": "string"
            }
          ],
          "internalType": "struct ArtsChain.Transfer[]",
          "name": "",
          "type": "tuple[]"
        }
      ],
      "stateMutability": "view",
      "type": "function"
    },
    {
      "inputs": [],
      "name": "getBestArtistSellerInfo",
      "outputs": [
        {
          "components": [
            {
              "internalType": "string",
              "name": "username",
              "type": "string"
            },
            {
              "internalType": "string",
              "name": "firstName",
              "type": "string"
            },
            {
              "internalType": "string",
              "name": "lastName",
              "type": "string"
            },
            {
              "internalType": "string",
              "name": "role",
              "type": "string"
            },
            {
              "internalType": "address",
              "name": "userAddress",
              "type": "address"
            },
            {
              "internalType": "uint256",
              "name": "salesCount",
              "type": "uint256"
            },
            {
              "internalType": "string[]",
              "name": "sales",
              "type": "string[]"
            }
          ],
          "internalType": "struct ArtsChain.ArtistSellerInfo",
          "name": "",
          "type": "tuple"
        }
      ],
      "stateMutability": "view",
      "type": "function"
    },
    {
      "inputs": [],
      "name": "getData",
      "outputs": [
        {
          "internalType": "int256[]",
          "name": "",
          "type": "int256[]"
        }
      ],
      "stateMutability": "view",
      "type": "function"
    },
    {
      "inputs": [],
      "name": "getLastArtwork",
      "outputs": [
        {
          "components": [
            {
              "internalType": "address",
              "name": "artist",
              "type": "address"
            },
            {
              "internalType": "address",
              "name": "owner",
              "type": "address"
            },
            {
              "internalType": "string",
              "name": "artistName",
              "type": "string"
            },
            {
              "internalType": "string",
              "name": "artworkId",
              "type": "string"
            },
            {
              "internalType": "string",
              "name": "title",
              "type": "string"
            },
            {
              "internalType": "string",
              "name": "description",
              "type": "string"
            },
            {
              "internalType": "string",
              "name": "imageUrl",
              "type": "string"
            },
            {
              "internalType": "uint256",
              "name": "timestamp",
              "type": "uint256"
            },
            {
              "internalType": "bool",
              "name": "forSale",
              "type": "bool"
            },
            {
              "internalType": "uint256",
              "name": "price",
              "type": "uint256"
            },
            {
              "internalType": "string",
              "name": "length",
              "type": "string"
            },
            {
              "internalType": "string",
              "name": "width",
              "type": "string"
            },
            {
              "internalType": "int256[]",
              "name": "transferHistory",
              "type": "int256[]"
            }
          ],
          "internalType": "struct ArtsChain.Artwork",
          "name": "",
          "type": "tuple"
        }
      ],
      "stateMutability": "view",
      "type": "function"
    },
    {
      "inputs": [
        {
          "internalType": "string",
          "name": "_username",
          "type": "string"
        }
      ],
      "name": "getUserAddressByUsername",
      "outputs": [
        {
          "internalType": "address",
          "name": "",
          "type": "address"
        }
      ],
      "stateMutability": "view",
      "type": "function"
    },
    {
      "inputs": [],
      "name": "getUserArtworks",
      "outputs": [
        {
          "components": [
            {
              "internalType": "address",
              "name": "artist",
              "type": "address"
            },
            {
              "internalType": "address",
              "name": "owner",
              "type": "address"
            },
            {
              "internalType": "string",
              "name": "artistName",
              "type": "string"
            },
            {
              "internalType": "string",
              "name": "artworkId",
              "type": "string"
            },
            {
              "internalType": "string",
              "name": "title",
              "type": "string"
            },
            {
              "internalType": "string",
              "name": "description",
              "type": "string"
            },
            {
              "internalType": "string",
              "name": "imageUrl",
              "type": "string"
            },
            {
              "internalType": "uint256",
              "name": "timestamp",
              "type": "uint256"
            },
            {
              "internalType": "bool",
              "name": "forSale",
              "type": "bool"
            },
            {
              "internalType": "uint256",
              "name": "price",
              "type": "uint256"
            },
            {
              "internalType": "string",
              "name": "length",
              "type": "string"
            },
            {
              "internalType": "string",
              "name": "width",
              "type": "string"
            },
            {
              "internalType": "int256[]",
              "name": "transferHistory",
              "type": "int256[]"
            }
          ],
          "internalType": "struct ArtsChain.Artwork[]",
          "name": "",
          "type": "tuple[]"
        }
      ],
      "stateMutability": "view",
      "type": "function"
    },
    {
      "inputs": [
        {
          "internalType": "address",
          "name": "user",
          "type": "address"
        }
      ],
      "name": "getUserTransactions",
      "outputs": [
        {
          "components": [
            {
              "internalType": "string",
              "name": "from",
              "type": "string"
            },
            {
              "internalType": "address",
              "name": "fromAd",
              "type": "address"
            },
            {
              "internalType": "string",
              "name": "to",
              "type": "string"
            },
            {
              "internalType": "address",
              "name": "toAd",
              "type": "address"
            },
            {
              "internalType": "uint256",
              "name": "date",
              "type": "uint256"
            },
            {
              "internalType": "uint256",
              "name": "price",
              "type": "uint256"
            },
            {
              "internalType": "string",
              "name": "artWorkId",
              "type": "string"
            }
          ],
          "internalType": "struct ArtsChain.Transfer[]",
          "name": "",
          "type": "tuple[]"
        }
      ],
      "stateMutability": "view",
      "type": "function"
    },
    {
      "inputs": [],
      "name": "isRegistered",
      "outputs": [
        {
          "internalType": "bool",
          "name": "",
          "type": "bool"
        }
      ],
      "stateMutability": "view",
      "type": "function"
    },
    {
      "inputs": [
        {
          "internalType": "string",
          "name": "userName",
          "type": "string"
        }
      ],
      "name": "isUserNameExist",
      "outputs": [
        {
          "internalType": "bool",
          "name": "",
          "type": "bool"
        }
      ],
      "stateMutability": "view",
      "type": "function"
    },
    {
      "inputs": [],
      "name": "login",
      "outputs": [
        {
          "internalType": "string",
          "name": "",
          "type": "string"
        },
        {
          "internalType": "string",
          "name": "",
          "type": "string"
        }
      ],
      "stateMutability": "view",
      "type": "function"
    },
    {
      "inputs": [
        {
          "internalType": "string",
          "name": "_artworkId",
          "type": "string"
        },
        {
          "internalType": "uint256",
          "name": "_price",
          "type": "uint256"
        }
      ],
      "name": "putArtworkForSale",
      "outputs": [],
      "stateMutability": "nonpayable",
      "type": "function"
    },
    {
      "inputs": [
        {
          "internalType": "string",
          "name": "_artworkId",
          "type": "string"
        }
      ],
      "name": "putArtworkNotForSale",
      "outputs": [],
      "stateMutability": "nonpayable",
      "type": "function"
    },
    {
      "inputs": [
        {
          "internalType": "string",
          "name": "username",
          "type": "string"
        },
        {
          "internalType": "string",
          "name": "firstName",
          "type": "string"
        },
        {
          "internalType": "string",
          "name": "lastName",
          "type": "string"
        },
        {
          "internalType": "string",
          "name": "role",
          "type": "string"
        }
      ],
      "name": "register",
      "outputs": [],
      "stateMutability": "nonpayable",
      "type": "function"
    },
    {
      "inputs": [
        {
          "internalType": "address",
          "name": "_from",
          "type": "address"
        },
        {
          "internalType": "address",
          "name": "_to",
          "type": "address"
        },
        {
          "internalType": "string",
          "name": "_artworkId",
          "type": "string"
        }
      ],
      "name": "transferArtworkOwnership",
      "outputs": [],
      "stateMutability": "nonpayable",
      "type": "function"
    },
    {
      "inputs": [
        {
          "internalType": "int256",
          "name": "",
          "type": "int256"
        }
      ],
      "name": "transfers",
      "outputs": [
        {
          "internalType": "string",
          "name": "from",
          "type": "string"
        },
        {
          "internalType": "address",
          "name": "fromAd",
          "type": "address"
        },
        {
          "internalType": "string",
          "name": "to",
          "type": "string"
        },
        {
          "internalType": "address",
          "name": "toAd",
          "type": "address"
        },
        {
          "internalType": "uint256",
          "name": "date",
          "type": "uint256"
        },
        {
          "internalType": "uint256",
          "name": "price",
          "type": "uint256"
        },
        {
          "internalType": "string",
          "name": "artWorkId",
          "type": "string"
        }
      ],
      "stateMutability": "view",
      "type": "function"
    },
    {
      "inputs": [
        {
          "internalType": "uint256",
          "name": "",
          "type": "uint256"
        }
      ],
      "name": "userAddresses",
      "outputs": [
        {
          "internalType": "address",
          "name": "",
          "type": "address"
        }
      ],
      "stateMutability": "view",
      "type": "function"
    },
    {
      "inputs": [
        {
          "internalType": "address",
          "name": "",
          "type": "address"
        }
      ],
      "name": "users",
      "outputs": [
        {
          "internalType": "string",
          "name": "username",
          "type": "string"
        },
        {
          "internalType": "string",
          "name": "firstName",
          "type": "string"
        },
        {
          "internalType": "string",
          "name": "lastName",
          "type": "string"
        },
        {
          "internalType": "string",
          "name": "role",
          "type": "string"
        },
        {
          "internalType": "uint256",
          "name": "artworkIdCounter",
          "type": "uint256"
        }
      ],
      "stateMutability": "view",
      "type": "function"
    }
  ],
  "bytecode": "0x6080604052600080546001600160a01b03191673e1d68d396f528ca22be259e3e5eba274c0b91a3e17815560018190556005819055600681905560078190556008553480156200004e57600080fd5b506040805180820182526005815264596168796160d81b602080830191909152600080546001600160a01b0316815260029091529190912090620000939082620001da565b50604080518082018252600581526420b236b4b760d91b602080830191909152600080546001600160a01b0316815260029091529190912060030190620000db9082620001da565b50600080546003805460018101825592527fc2575a0e9e593c00f959f8c92f12db2869c3395a3b0502d05e2516446f71f85b90910180546001600160a01b0319166001600160a01b03909216919091179055620002a6565b634e487b7160e01b600052604160045260246000fd5b600181811c908216806200015e57607f821691505b6020821081036200017f57634e487b7160e01b600052602260045260246000fd5b50919050565b601f821115620001d5576000816000526020600020601f850160051c81016020861015620001b05750805b601f850160051c820191505b81811015620001d157828155600101620001bc565b5050505b505050565b81516001600160401b03811115620001f657620001f662000133565b6200020e8162000207845462000149565b8462000185565b602080601f8311600181146200024657600084156200022d5750858301515b600019600386901b1c1916600185901b178555620001d1565b600085815260208120601f198616915b82811015620002775788860151825594840194600190910190840162000256565b5085821015620002965787850151600019600388901b60f8161c191681555b5050505050600190811b01905550565b615a5580620002b66000396000f3fe608060405234801561001057600080fd5b506004361061014d5760003560e01c80637069cdd1116100c3578063b34e97e81161007c578063b34e97e8146102d6578063bbf3a094146102ec578063c662b68e146102ff578063e47c5e3314610325578063ef92539914610338578063f5ef366b1461034b57600080fd5b80637069cdd11461024f57806377c585571461026f5780639c655c92146102825780639dfcf4b51461028a578063a87430ba1461029d578063b0dcf147146102c157600080fd5b80633e59a5b6116101155780633e59a5b6146101c1578063502c9bd5146101d657806361ee4e621461020157806362485675146102145780636eaf274514610227578063704c03711461023c57600080fd5b80630e24c52c146101525780630f64dd1b14610167578063223668441461018f57806327506f53146101975780633bc5de30146101ac575b600080fd5b610165610160366004614cff565b61035e565b005b61017a610175366004614dab565b610506565b60405190151581526020015b60405180910390f35b61017a61058d565b61019f6105af565b6040516101869190614e37565b6101b4610851565b6040516101869190614f18565b6101c9610926565b60405161018691906150cc565b6101e96101e43660046150e6565b610edd565b6040516001600160a01b039091168152602001610186565b61016561020f3660046150ff565b610f07565b61019f6102223660046151e7565b61114d565b61022f61150d565b6040516101869190615234565b61016561024a366004615298565b611b42565b61026261025d3660046152dc565b611cc8565b604051610186919061534f565b6101c961027d366004614dab565b611d93565b61022f612303565b6101c9610298366004614dab565b612a12565b6102b06102ab366004615362565b612f1e565b60405161018695949392919061537d565b6102c961316c565b6040516101869190615437565b6102de613575565b6040516101869291906154ef565b6101656102fa366004615514565b613713565b61031261030d3660046150e6565b613f47565b6040516101869796959493929190615567565b6101e9610333366004614dab565b614137565b61019f610346366004615362565b614265565b610165610359366004614dab565b6145d6565b3360009081526002602052604090208054610378906155d3565b1590506103c55760405162461bcd60e51b81526020600482015260166024820152754163636f756e7420616c72656164792065786973747360501b60448201526064015b60405180910390fd5b3360009081526002602052604090206103de8582615658565b503360009081526002602052604090206001016103fb8482615658565b50336000908152600260208190526040909120016104198382615658565b503360009081526002602052604090206003016104368282615658565b506040516510db1a595b9d60d21b602082015260260160405160208183030381529060405280519060200120816040516020016104739190615717565b60405160208183030381529060405280519060200120036104a8576005805490600061049e83615749565b91905055506104be565b600680549060006104b883615749565b91905055505b5050600380546001810182556000919091527fc2575a0e9e593c00f959f8c92f12db2869c3395a3b0502d05e2516446f71f85b0180546001600160a01b031916331790555050565b6000805b600354811015610584578280519060200120600260006003848154811061053357610533615768565b60009182526020808320909101546001600160a01b031683528201929092526040908101909120905161056691906157f1565b60405180910390200361057c5750600192915050565b60010161050a565b50600092915050565b33600090815260026020526040812080546105a7906155d3565b151592915050565b606060006001546001600160401b038111156105cd576105cd614c5d565b60405190808252806020026020018201604052801561060657816020015b6105f3614a6f565b8152602001906001900390816105eb5790505b50905060005b60015481121561084b5760008181526004602052604090819020815160e0810190925280548290829061063e906155d3565b80601f016020809104026020016040519081016040528092919081815260200182805461066a906155d3565b80156106b75780601f1061068c576101008083540402835291602001916106b7565b820191906000526020600020905b81548152906001019060200180831161069a57829003601f168201915b505050918352505060018201546001600160a01b031660208201526002820180546040909201916106e7906155d3565b80601f0160208091040260200160405190810160405280929190818152602001828054610713906155d3565b80156107605780601f1061073557610100808354040283529160200191610760565b820191906000526020600020905b81548152906001019060200180831161074357829003601f168201915b505050918352505060038201546001600160a01b0316602082015260048201546040820152600582015460608201526006820180546080909201916107a4906155d3565b80601f01602080910402602001604051908101604052809291908181526020018280546107d0906155d3565b801561081d5780601f106107f25761010080835404028352916020019161081d565b820191906000526020600020905b81548152906001019060200180831161080057829003601f168201915b50505050508152505082828151811061083857610838615768565b602090810291909101015260010161060c565b50919050565b60408051600580825260c08201909252606091600091906020820160a0803683370190505090506006548160008151811061088e5761088e615768565b602002602001018181525050600554816001815181106108b0576108b0615768565b602002602001018181525050600754816002815181106108d2576108d2615768565b602002602001018181525050600854816003815181106108f4576108f4615768565b6020026020010181815250506001548160048151811061091657610916615768565b6020908102919091010152919050565b61092e614abe565b336000908152600260205260408120600781015491906004016109526001846157fd565b8154811061096257610962615768565b906000526020600020018054610977906155d3565b80601f01602080910402602001604051908101604052809291908181526020018280546109a3906155d3565b80156109f05780601f106109c5576101008083540402835291602001916109f0565b820191906000526020600020905b8154815290600101906020018083116109d357829003601f168201915b5050336000908152600260205260408082209051959650909460069091019350610a1d9250859150615717565b9081526040805191829003602090810183206101a08401835280546001600160a01b039081168552600182015416918401919091526002810180549192840191610a66906155d3565b80601f0160208091040260200160405190810160405280929190818152602001828054610a92906155d3565b8015610adf5780601f10610ab457610100808354040283529160200191610adf565b820191906000526020600020905b815481529060010190602001808311610ac257829003601f168201915b50505050508152602001600382018054610af8906155d3565b80601f0160208091040260200160405190810160405280929190818152602001828054610b24906155d3565b8015610b715780601f10610b4657610100808354040283529160200191610b71565b820191906000526020600020905b815481529060010190602001808311610b5457829003601f168201915b50505050508152602001600482018054610b8a906155d3565b80601f0160208091040260200160405190810160405280929190818152602001828054610bb6906155d3565b8015610c035780601f10610bd857610100808354040283529160200191610c03565b820191906000526020600020905b815481529060010190602001808311610be657829003601f168201915b50505050508152602001600582018054610c1c906155d3565b80601f0160208091040260200160405190810160405280929190818152602001828054610c48906155d3565b8015610c955780601f10610c6a57610100808354040283529160200191610c95565b820191906000526020600020905b815481529060010190602001808311610c7857829003601f168201915b50505050508152602001600682018054610cae906155d3565b80601f0160208091040260200160405190810160405280929190818152602001828054610cda906155d3565b8015610d275780601f10610cfc57610100808354040283529160200191610d27565b820191906000526020600020905b815481529060010190602001808311610d0a57829003601f168201915b505050918352505060078201546020820152600882015460ff161515604082015260098201546060820152600a82018054608090920191610d67906155d3565b80601f0160208091040260200160405190810160405280929190818152602001828054610d93906155d3565b8015610de05780601f10610db557610100808354040283529160200191610de0565b820191906000526020600020905b815481529060010190602001808311610dc357829003601f168201915b50505050508152602001600b82018054610df9906155d3565b80601f0160208091040260200160405190810160405280929190818152602001828054610e25906155d3565b8015610e725780601f10610e4757610100808354040283529160200191610e72565b820191906000526020600020905b815481529060010190602001808311610e5557829003601f168201915b50505050508152602001600c8201805480602002602001604051908101604052809291908181526020018280548015610eca57602002820191906000526020600020905b815481526020019060010190808311610eb6575b5050509190925250919695505050505050565b60038181548110610eed57600080fd5b6000918252602090912001546001600160a01b0316905081565b6000610f14338786611cc8565b33600081815260026020818152604080842081516101a0810183528681528084018790529585528383528151969750956060959391840192610f5f9260018901929089019101615810565b60405160208183030381529060405281526020018581526020018a815260200189815260200188815260200142815260200160001515815260200160008152602001878152602001868152602001838152509050808360060185604051610fc69190615717565b9081526040805160209281900383019020835181546001600160a01b03199081166001600160a01b0392831617835593850151600183018054909516911617909255820151600282019061101a9082615658565b506060820151600382019061102f9082615658565b50608082015160048201906110449082615658565b5060a082015160058201906110599082615658565b5060c0820151600682019061106e9082615658565b5060e0820151600782015561010082015160088201805460ff19169115159190911790556101208201516009820155610140820151600a8201906110b29082615658565b50610160820151600b8201906110c89082615658565b5061018082015180516110e591600c840191602090910190614b3a565b50505060048301805460018101825560009182526020909120016111098582615658565b5033600090815260026020526040812060070180549161112883615830565b90915550506007805490600061113d83615749565b9190505550505050505050505050565b6001600160a01b0381166000908152600260205260409081902090516060916006019061117b908590615717565b90815260200160405180910390206003018054611197906155d3565b90506000036111b85760405162461bcd60e51b81526004016103bc90615842565b6001600160a01b03821660009081526002602052604080822090516006909101906111e4908690615717565b908152604080519182900360209081018320600c01805480830285018301909352828452919083018282801561123957602002820191906000526020600020905b815481526020019060010190808311611225575b505050505090506000815190506000816001600160401b0381111561126057611260614c5d565b60405190808252806020026020018201604052801561129957816020015b611286614a6f565b81526020019060019003908161127e5790505b50905060005b828110156115015760008482815181106112bb576112bb615768565b60200260200101519050600460008281526020019081526020016000206040518060e00160405290816000820180546112f3906155d3565b80601f016020809104026020016040519081016040528092919081815260200182805461131f906155d3565b801561136c5780601f106113415761010080835404028352916020019161136c565b820191906000526020600020905b81548152906001019060200180831161134f57829003601f168201915b505050918352505060018201546001600160a01b0316602082015260028201805460409092019161139c906155d3565b80601f01602080910402602001604051908101604052809291908181526020018280546113c8906155d3565b80156114155780601f106113ea57610100808354040283529160200191611415565b820191906000526020600020905b8154815290600101906020018083116113f857829003601f168201915b505050918352505060038201546001600160a01b031660208201526004820154604082015260058201546060820152600682018054608090920191611459906155d3565b80601f0160208091040260200160405190810160405280929190818152602001828054611485906155d3565b80156114d25780601f106114a7576101008083540402835291602001916114d2565b820191906000526020600020905b8154815290600101906020018083116114b557829003601f168201915b5050505050815250508383815181106114ed576114ed615768565b60209081029190910101525060010161129f565b50925050505b92915050565b33600090815260026020526040812060070154606091816001600160401b0381111561153b5761153b614c5d565b60405190808252806020026020018201604052801561157457816020015b611561614abe565b8152602001906001900390816115595790505b50905060005b82811015611b3b573360009081526002602052604081206004018054839081106115a6576115a6615768565b9060005260206000200180546115bb906155d3565b80601f01602080910402602001604051908101604052809291908181526020018280546115e7906155d3565b80156116345780601f1061160957610100808354040283529160200191611634565b820191906000526020600020905b81548152906001019060200180831161161757829003601f168201915b5050336000908152600260205260409081902090519495506006019361165f93508592509050615717565b9081526040805191829003602090810183206101a08401835280546001600160a01b0390811685526001820154169184019190915260028101805491928401916116a8906155d3565b80601f01602080910402602001604051908101604052809291908181526020018280546116d4906155d3565b80156117215780601f106116f657610100808354040283529160200191611721565b820191906000526020600020905b81548152906001019060200180831161170457829003601f168201915b5050505050815260200160038201805461173a906155d3565b80601f0160208091040260200160405190810160405280929190818152602001828054611766906155d3565b80156117b35780601f10611788576101008083540402835291602001916117b3565b820191906000526020600020905b81548152906001019060200180831161179657829003601f168201915b505050505081526020016004820180546117cc906155d3565b80601f01602080910402602001604051908101604052809291908181526020018280546117f8906155d3565b80156118455780601f1061181a57610100808354040283529160200191611845565b820191906000526020600020905b81548152906001019060200180831161182857829003601f168201915b5050505050815260200160058201805461185e906155d3565b80601f016020809104026020016040519081016040528092919081815260200182805461188a906155d3565b80156118d75780601f106118ac576101008083540402835291602001916118d7565b820191906000526020600020905b8154815290600101906020018083116118ba57829003601f168201915b505050505081526020016006820180546118f0906155d3565b80601f016020809104026020016040519081016040528092919081815260200182805461191c906155d3565b80156119695780601f1061193e57610100808354040283529160200191611969565b820191906000526020600020905b81548152906001019060200180831161194c57829003601f168201915b505050918352505060078201546020820152600882015460ff161515604082015260098201546060820152600a820180546080909201916119a9906155d3565b80601f01602080910402602001604051908101604052809291908181526020018280546119d5906155d3565b8015611a225780601f106119f757610100808354040283529160200191611a22565b820191906000526020600020905b815481529060010190602001808311611a0557829003601f168201915b50505050508152602001600b82018054611a3b906155d3565b80601f0160208091040260200160405190810160405280929190818152602001828054611a67906155d3565b8015611ab45780601f10611a8957610100808354040283529160200191611ab4565b820191906000526020600020905b815481529060010190602001808311611a9757829003601f168201915b50505050508152602001600c8201805480602002602001604051908101604052809291908181526020018280548015611b0c57602002820191906000526020600020905b815481526020019060010190808311611af8575b505050505081525050838381518110611b2757611b27615768565b60209081029190910101525060010161157a565b5092915050565b33600090815260026020526040908190209051600690910190611b66908490615717565b90815260200160405180910390206003018054611b82906155d3565b1580159150611bce575033600081815260026020526040908190209051600690910190611bb0908590615717565b908152604051908190036020019020600101546001600160a01b0316145b611c1a5760405162461bcd60e51b815260206004820152601a60248201527f596f7520646f206e6f74206f776e2074686520617274776f726b00000000000060448201526064016103bc565b33600090815260026020526040908190209051829160060190611c3e908590615717565b908152602001604051809103902060090181905550600160026000336001600160a01b03166001600160a01b0316815260200190815260200160002060060183604051611c8b9190615717565b9081526040519081900360200190206008908101805492151560ff19909316929092179091558054906000611cbf83615749565b91905055505050565b60606000848484604051602001611ce193929190615872565b60408051601f19818403018152919052805160208201209091506000611d068261470d565b604080516008808252818301909252919250829160009160208201818036833701905050905060005b6008811015611d8657828181518110611d4a57611d4a615768565b602001015160f81c60f81b828281518110611d6757611d67615768565b60200101906001600160f81b031916908160001a905350600101611d2f565b5098975050505050505050565b611d9b614abe565b60005b6003548110156122ea5760006002600060038481548110611dc157611dc1615768565b9060005260206000200160009054906101000a90046001600160a01b03166001600160a01b03166001600160a01b0316815260200190815260200160002060060184604051611e109190615717565b9081526040805191829003602090810183206101a08401835280546001600160a01b039081168552600182015416918401919091526002810180549192840191611e59906155d3565b80601f0160208091040260200160405190810160405280929190818152602001828054611e85906155d3565b8015611ed25780601f10611ea757610100808354040283529160200191611ed2565b820191906000526020600020905b815481529060010190602001808311611eb557829003601f168201915b50505050508152602001600382018054611eeb906155d3565b80601f0160208091040260200160405190810160405280929190818152602001828054611f17906155d3565b8015611f645780601f10611f3957610100808354040283529160200191611f64565b820191906000526020600020905b815481529060010190602001808311611f4757829003601f168201915b50505050508152602001600482018054611f7d906155d3565b80601f0160208091040260200160405190810160405280929190818152602001828054611fa9906155d3565b8015611ff65780601f10611fcb57610100808354040283529160200191611ff6565b820191906000526020600020905b815481529060010190602001808311611fd957829003601f168201915b5050505050815260200160058201805461200f906155d3565b80601f016020809104026020016040519081016040528092919081815260200182805461203b906155d3565b80156120885780601f1061205d57610100808354040283529160200191612088565b820191906000526020600020905b81548152906001019060200180831161206b57829003601f168201915b505050505081526020016006820180546120a1906155d3565b80601f01602080910402602001604051908101604052809291908181526020018280546120cd906155d3565b801561211a5780601f106120ef5761010080835404028352916020019161211a565b820191906000526020600020905b8154815290600101906020018083116120fd57829003601f168201915b505050918352505060078201546020820152600882015460ff161515604082015260098201546060820152600a8201805460809092019161215a906155d3565b80601f0160208091040260200160405190810160405280929190818152602001828054612186906155d3565b80156121d35780601f106121a8576101008083540402835291602001916121d3565b820191906000526020600020905b8154815290600101906020018083116121b657829003601f168201915b50505050508152602001600b820180546121ec906155d3565b80601f0160208091040260200160405190810160405280929190818152602001828054612218906155d3565b80156122655780601f1061223a57610100808354040283529160200191612265565b820191906000526020600020905b81548152906001019060200180831161224857829003601f168201915b50505050508152602001600c82018054806020026020016040519081016040528092919081815260200182805480156122bd57602002820191906000526020600020905b8154815260200190600101908083116122a9575b5050509190925250508151919250506001600160a01b0316156122e1579392505050565b50600101611d9e565b5060405162461bcd60e51b81526004016103bc90615842565b60606000805b600354811015612357576123436003828154811061232957612329615768565b6000918252602090912001546001600160a01b0316614801565b61234d90836158c0565b9150600101612309565b506000816001600160401b0381111561237257612372614c5d565b6040519080825280602002602001820160405280156123ab57816020015b612398614abe565b8152602001906001900390816123905790505b5090506000805b600354811015612a09576000600382815481106123d1576123d1615768565b60009182526020808320909101546001600160a01b031680835260029091526040822060070154909250905b818110156129fe576001600160a01b038316600090815260026020526040812060040180548390811061243257612432615768565b906000526020600020018054612447906155d3565b80601f0160208091040260200160405190810160405280929190818152602001828054612473906155d3565b80156124c05780601f10612495576101008083540402835291602001916124c0565b820191906000526020600020905b8154815290600101906020018083116124a357829003601f168201915b50505050509050600060026000866001600160a01b03166001600160a01b03168152602001908152602001600020600601826040516124ff9190615717565b908152604051908190036020019020600881015490915060ff16156129f457604080516101a08101825282546001600160a01b039081168252600184015416602082015260028301805491928492908401919061255b906155d3565b80601f0160208091040260200160405190810160405280929190818152602001828054612587906155d3565b80156125d45780601f106125a9576101008083540402835291602001916125d4565b820191906000526020600020905b8154815290600101906020018083116125b757829003601f168201915b505050505081526020016003820180546125ed906155d3565b80601f0160208091040260200160405190810160405280929190818152602001828054612619906155d3565b80156126665780601f1061263b57610100808354040283529160200191612666565b820191906000526020600020905b81548152906001019060200180831161264957829003601f168201915b5050505050815260200160048201805461267f906155d3565b80601f01602080910402602001604051908101604052809291908181526020018280546126ab906155d3565b80156126f85780601f106126cd576101008083540402835291602001916126f8565b820191906000526020600020905b8154815290600101906020018083116126db57829003601f168201915b50505050508152602001600582018054612711906155d3565b80601f016020809104026020016040519081016040528092919081815260200182805461273d906155d3565b801561278a5780601f1061275f5761010080835404028352916020019161278a565b820191906000526020600020905b81548152906001019060200180831161276d57829003601f168201915b505050505081526020016006820180546127a3906155d3565b80601f01602080910402602001604051908101604052809291908181526020018280546127cf906155d3565b801561281c5780601f106127f15761010080835404028352916020019161281c565b820191906000526020600020905b8154815290600101906020018083116127ff57829003601f168201915b505050918352505060078201546020820152600882015460ff161515604082015260098201546060820152600a8201805460809092019161285c906155d3565b80601f0160208091040260200160405190810160405280929190818152602001828054612888906155d3565b80156128d55780601f106128aa576101008083540402835291602001916128d5565b820191906000526020600020905b8154815290600101906020018083116128b857829003601f168201915b50505050508152602001600b820180546128ee906155d3565b80601f016020809104026020016040519081016040528092919081815260200182805461291a906155d3565b80156129675780601f1061293c57610100808354040283529160200191612967565b820191906000526020600020905b81548152906001019060200180831161294a57829003601f168201915b50505050508152602001600c82018054806020026020016040519081016040528092919081815260200182805480156129bf57602002820191906000526020600020905b8154815260200190600101908083116129ab575b5050505050815250508888815181106129da576129da615768565b602002602001018190525086806129f090615830565b9750505b50506001016123fd565b5050506001016123b2565b50909392505050565b612a1a614abe565b336000908152600260205260408082209051600690910190612a3d908590615717565b9081526040805191829003602090810183206101a08401835280546001600160a01b039081168552600182015416918401919091526002810180549192840191612a86906155d3565b80601f0160208091040260200160405190810160405280929190818152602001828054612ab2906155d3565b8015612aff5780601f10612ad457610100808354040283529160200191612aff565b820191906000526020600020905b815481529060010190602001808311612ae257829003601f168201915b50505050508152602001600382018054612b18906155d3565b80601f0160208091040260200160405190810160405280929190818152602001828054612b44906155d3565b8015612b915780601f10612b6657610100808354040283529160200191612b91565b820191906000526020600020905b815481529060010190602001808311612b7457829003601f168201915b50505050508152602001600482018054612baa906155d3565b80601f0160208091040260200160405190810160405280929190818152602001828054612bd6906155d3565b8015612c235780601f10612bf857610100808354040283529160200191612c23565b820191906000526020600020905b815481529060010190602001808311612c0657829003601f168201915b50505050508152602001600582018054612c3c906155d3565b80601f0160208091040260200160405190810160405280929190818152602001828054612c68906155d3565b8015612cb55780601f10612c8a57610100808354040283529160200191612cb5565b820191906000526020600020905b815481529060010190602001808311612c9857829003601f168201915b50505050508152602001600682018054612cce906155d3565b80601f0160208091040260200160405190810160405280929190818152602001828054612cfa906155d3565b8015612d475780601f10612d1c57610100808354040283529160200191612d47565b820191906000526020600020905b815481529060010190602001808311612d2a57829003601f168201915b505050918352505060078201546020820152600882015460ff161515604082015260098201546060820152600a82018054608090920191612d87906155d3565b80601f0160208091040260200160405190810160405280929190818152602001828054612db3906155d3565b8015612e005780601f10612dd557610100808354040283529160200191612e00565b820191906000526020600020905b815481529060010190602001808311612de357829003601f168201915b50505050508152602001600b82018054612e19906155d3565b80601f0160208091040260200160405190810160405280929190818152602001828054612e45906155d3565b8015612e925780601f10612e6757610100808354040283529160200191612e92565b820191906000526020600020905b815481529060010190602001808311612e7557829003601f168201915b50505050508152602001600c8201805480602002602001604051908101604052809291908181526020018280548015612eea57602002820191906000526020600020905b815481526020019060010190808311612ed6575b5050509190925250508151919250506001600160a01b03166115075760405162461bcd60e51b81526004016103bc90615842565b600260205260009081526040902080548190612f39906155d3565b80601f0160208091040260200160405190810160405280929190818152602001828054612f65906155d3565b8015612fb25780601f10612f8757610100808354040283529160200191612fb2565b820191906000526020600020905b815481529060010190602001808311612f9557829003601f168201915b505050505090806001018054612fc7906155d3565b80601f0160208091040260200160405190810160405280929190818152602001828054612ff3906155d3565b80156130405780601f1061301557610100808354040283529160200191613040565b820191906000526020600020905b81548152906001019060200180831161302357829003601f168201915b505050505090806002018054613055906155d3565b80601f0160208091040260200160405190810160405280929190818152602001828054613081906155d3565b80156130ce5780601f106130a3576101008083540402835291602001916130ce565b820191906000526020600020905b8154815290600101906020018083116130b157829003601f168201915b5050505050908060030180546130e3906155d3565b80601f016020809104026020016040519081016040528092919081815260200182805461310f906155d3565b801561315c5780601f106131315761010080835404028352916020019161315c565b820191906000526020600020905b81548152906001019060200180831161313f57829003601f168201915b5050505050908060070154905085565b613174614b85565b60008061317f614949565b6001600160a01b03821660009081526002602052604081208054939550919350916131a9906155d3565b80601f01602080910402602001604051908101604052809291908181526020018280546131d5906155d3565b80156132225780601f106131f757610100808354040283529160200191613222565b820191906000526020600020905b81548152906001019060200180831161320557829003601f168201915b5050506001600160a01b03861660009081526002602052604081206001018054949550909390925061325491506155d3565b80601f0160208091040260200160405190810160405280929190818152602001828054613280906155d3565b80156132cd5780601f106132a2576101008083540402835291602001916132cd565b820191906000526020600020905b8154815290600101906020018083116132b057829003601f168201915b50505050509050600060026000866001600160a01b03166001600160a01b031681526020019081526020016000206002018054613309906155d3565b80601f0160208091040260200160405190810160405280929190818152602001828054613335906155d3565b80156133825780601f1061335757610100808354040283529160200191613382565b820191906000526020600020905b81548152906001019060200180831161336557829003601f168201915b5050506001600160a01b0388166000908152600260205260408120600301805494955090939092506133b491506155d3565b80601f01602080910402602001604051908101604052809291908181526020018280546133e0906155d3565b801561342d5780601f106134025761010080835404028352916020019161342d565b820191906000526020600020905b81548152906001019060200180831161341057829003601f168201915b50505050509050600060026000886001600160a01b03166001600160a01b03168152602001908152602001600020600501805480602002602001604051908101604052809291908181526020016000905b8282101561352a57838290600052602060002001805461349d906155d3565b80601f01602080910402602001604051908101604052809291908181526020018280546134c9906155d3565b80156135165780601f106134eb57610100808354040283529160200191613516565b820191906000526020600020905b8154815290600101906020018083116134f957829003601f168201915b50505050508152602001906001019061347e565b505050509050613538614b85565b9485526020850193909352604084019190915260608301526001600160a01b03909316608082015260a081019190915260c0810191909152919050565b33600090815260026020526040902080546060918291613594906155d3565b90506000036135de5760405162461bcd60e51b81526020600482015260166024820152751058d8dbdd5b9d08191bd95cc81b9bdd08195e1a5cdd60521b60448201526064016103bc565b3360009081526002602052604090208054600382019082906135ff906155d3565b80601f016020809104026020016040519081016040528092919081815260200182805461362b906155d3565b80156136785780601f1061364d57610100808354040283529160200191613678565b820191906000526020600020905b81548152906001019060200180831161365b57829003601f168201915b5050505050915080805461368b906155d3565b80601f01602080910402602001604051908101604052809291908181526020018280546136b7906155d3565b80156137045780601f106136d957610100808354040283529160200191613704565b820191906000526020600020905b8154815290600101906020018083116136e757829003601f168201915b50505050509050915091509091565b6001600160a01b038316600081815260026020526040908190209051600690910190613740908490615717565b908152604051908190036020019020600101546001600160a01b0316146137a95760405162461bcd60e51b815260206004820152601f60248201527f53656e64657220646f6573206e6f74206f776e2074686520617274776f726b0060448201526064016103bc565b6040805160e0810182526001600160a01b0385166000908152600260205291822080548291906137d8906155d3565b80601f0160208091040260200160405190810160405280929190818152602001828054613804906155d3565b80156138515780601f1061382657610100808354040283529160200191613851565b820191906000526020600020905b81548152906001019060200180831161383457829003601f168201915b50505050508152602001856001600160a01b0316815260200160026000866001600160a01b03166001600160a01b03168152602001908152602001600020600001805461389d906155d3565b80601f01602080910402602001604051908101604052809291908181526020018280546138c9906155d3565b80156139165780601f106138eb57610100808354040283529160200191613916565b820191906000526020600020905b8154815290600101906020018083116138f957829003601f168201915b50505050508152602001846001600160a01b0316815260200142815260200160026000876001600160a01b03166001600160a01b031681526020019081526020016000206006018460405161396b9190615717565b908152602001604051809103902060090154815260200183815250905060026000856001600160a01b03166001600160a01b03168152602001908152602001600020600601826040516139be9190615717565b90815260408051918290036020908101832060018054600c909201805491820181556000908152838120909101919091556001600160a01b03881681526002909152208491600690910190613a14908590615717565b90815260408051918290036020908101832060010180546001600160a01b039586166001600160a01b031990911617905592871660009081526002909352822060060190613a63908590615717565b9081526040805160209281900383019020600801805460ff1916931515939093179092556001600160a01b0386166000908152600282529182206005018054600181018255908352912001613ab88382615658565b506001600160a01b0384166000908152600260205260408120600701805491613ae0836158d3565b919050555060005b6001600160a01b038516600090815260026020526040902060040154811015613c7c5782604051602001613b1c9190615717565b60408051601f1981840301815291815281516020928301206001600160a01b038816600090815260029093529120600401805483908110613b5f57613b5f615768565b90600052602060002001604051602001613b7991906157f1565b6040516020818303038152906040528051906020012003613c74576001600160a01b03851660009081526002602052604090206004018054613bbd906001906157fd565b81548110613bcd57613bcd615768565b9060005260206000200160026000876001600160a01b03166001600160a01b031681526020019081526020016000206004018281548110613c1057613c10615768565b906000526020600020019081613c2691906158ea565b506001600160a01b0385166000908152600260205260409020600401805480613c5157613c516159c4565b600190038181906000526020600020016000613c6d9190614bcb565b9055613c7c565b600101613ae8565b506001600160a01b038316600090815260026020908152604082206004018054600181018255908352912001613cb28382615658565b5060026000856001600160a01b03166001600160a01b0316815260200190815260200160002060060182604051613ce99190615717565b908152602001604051809103902060026000856001600160a01b03166001600160a01b0316815260200190815260200160002060060183604051613d2d9190615717565b908152604051908190036020019020815481546001600160a01b03199081166001600160a01b0392831617835560018085015490840180549092169216919091179055600280820190613d82908401826158ea565b50600381810190613d95908401826158ea565b50600481810190613da8908401826158ea565b50600581810190613dbb908401826158ea565b50600681810190613dce908401826158ea565b5060078281015490820155600880830154908201805460ff191660ff909216151591909117905560098083015490820155600a80820190613e11908401826158ea565b50600b81810190613e24908401826158ea565b50600c8281018054613e399284019190614c08565b5050506001600160a01b0383166000908152600260205260408120600701805491613e6383615830565b9091555050600154600090815260046020526040902081518291908190613e8a9082615658565b5060208201516001820180546001600160a01b0319166001600160a01b0390921691909117905560408201516002820190613ec59082615658565b5060608201516003820180546001600160a01b0319166001600160a01b039092169190911790556080820151600482015560a0820151600582015560c08201516006820190613f149082615658565b50506001805491506000613f2783615749565b909155505060088054906000613f3c836159da565b919050555050505050565b600460205260009081526040902080548190613f62906155d3565b80601f0160208091040260200160405190810160405280929190818152602001828054613f8e906155d3565b8015613fdb5780601f10613fb057610100808354040283529160200191613fdb565b820191906000526020600020905b815481529060010190602001808311613fbe57829003601f168201915b505050600184015460028501805494956001600160a01b03909216949193509150614005906155d3565b80601f0160208091040260200160405190810160405280929190818152602001828054614031906155d3565b801561407e5780601f106140535761010080835404028352916020019161407e565b820191906000526020600020905b81548152906001019060200180831161406157829003601f168201915b50505060038401546004850154600586015460068701805496976001600160a01b0390941696929550909350906140b4906155d3565b80601f01602080910402602001604051908101604052809291908181526020018280546140e0906155d3565b801561412d5780601f106141025761010080835404028352916020019161412d565b820191906000526020600020905b81548152906001019060200180831161411057829003601f168201915b5050505050905087565b6000805b6003548110156105845760006003828154811061415a5761415a615768565b600091825260209182902001546040516001600160a01b03909116925061418e91016510db1a595b9d60d21b815260060190565b60408051601f1981840301815282825280516020918201206001600160a01b0385166000908152600283529290922091926141cd9260030191016157f1565b604051602081830303815290604052805190602001201480156142505750836040516020016141fc9190615717565b60408051601f1981840301815282825280516020918201206001600160a01b0385166000908152600283529290922091926142389291016157f1565b60405160208183030381529060405280519060200120145b1561425c579392505050565b5060010161413b565b60606000805b6001548112156142d7576000818152600460205260409020600101546001600160a01b03858116911614806142bc57506000818152600460205260409020600301546001600160a01b038581169116145b156142cf57816142cb81615830565b9250505b60010161426b565b506000816001600160401b038111156142f2576142f2614c5d565b60405190808252806020026020018201604052801561432b57816020015b614318614a6f565b8152602001906001900390816143105790505b5090506000805b6001548112156145cc576000818152600460205260409020600101546001600160a01b038781169116148061438357506000818152600460205260409020600301546001600160a01b038781169116145b156145c45760008181526004602052604090819020815160e081019092528054829082906143b0906155d3565b80601f01602080910402602001604051908101604052809291908181526020018280546143dc906155d3565b80156144295780601f106143fe57610100808354040283529160200191614429565b820191906000526020600020905b81548152906001019060200180831161440c57829003601f168201915b505050918352505060018201546001600160a01b03166020820152600282018054604090920191614459906155d3565b80601f0160208091040260200160405190810160405280929190818152602001828054614485906155d3565b80156144d25780601f106144a7576101008083540402835291602001916144d2565b820191906000526020600020905b8154815290600101906020018083116144b557829003601f168201915b505050918352505060038201546001600160a01b031660208201526004820154604082015260058201546060820152600682018054608090920191614516906155d3565b80601f0160208091040260200160405190810160405280929190818152602001828054614542906155d3565b801561458f5780601f106145645761010080835404028352916020019161458f565b820191906000526020600020905b81548152906001019060200180831161457257829003601f168201915b5050505050815250508383815181106145aa576145aa615768565b602002602001018190525081806145c090615830565b9250505b600101614332565b5090949350505050565b336000908152600260205260409081902090516006909101906145fa908390615717565b90815260200160405180910390206003018054614616906155d3565b1580159150614662575033600081815260026020526040908190209051600690910190614644908490615717565b908152604051908190036020019020600101546001600160a01b0316145b6146ae5760405162461bcd60e51b815260206004820152601a60248201527f596f7520646f206e6f74206f776e2074686520617274776f726b00000000000060448201526064016103bc565b3360009081526002602052604080822090516006909101906146d1908490615717565b9081526040519081900360200190206008908101805492151560ff19909316929092179091558054906000614705836159da565b919050555050565b6040805181815260608181018352916000919060208201818036833701905050905060005b6020811015611b3b5761476a600485836020811061475257614752615768565b1a60f81b6001600160f81b031916901c60f81c614a3d565b826147768360026159ef565b8151811061478657614786615768565b60200101906001600160f81b031916908160001a9053506147bb8482602081106147b2576147b2615768565b1a600f16614a3d565b826147c78360026159ef565b6147d29060016158c0565b815181106147e2576147e2615768565b60200101906001600160f81b031916908160001a905350600101614732565b6001600160a01b0381166000908152600260205260408120600701548190815b81811015612a09576001600160a01b038516600090815260026020526040812060040180548390811061485657614856615768565b90600052602060002001805461486b906155d3565b80601f0160208091040260200160405190810160405280929190818152602001828054614897906155d3565b80156148e45780601f106148b9576101008083540402835291602001916148e4565b820191906000526020600020905b8154815290600101906020018083116148c757829003601f168201915b5050506001600160a01b038916600090815260026020526040908190209051939450600601926149179250849150615717565b9081526040519081900360200190206008015460ff1615614940578361493c81615830565b9450505b50600101614821565b6000808080805b600354811015614a335760006003828154811061496f5761496f615768565b600091825260209182902001546040516001600160a01b0390911692506149a3910165105c9d1a5cdd60d21b815260060190565b60408051601f1981840301815282825280516020918201206001600160a01b0385166000908152600283529290922091926149e29260030191016157f1565b6040516020818303038152906040528051906020012003614a2a576001600160a01b03811660009081526002602052604090206005015483811115614a28578093508194505b505b50600101614950565b5090939092509050565b6000600a8260ff161015614a5f57614a56826030615a06565b60f81b92915050565b614a56826057615a06565b919050565b6040518060e001604052806060815260200160006001600160a01b031681526020016060815260200160006001600160a01b031681526020016000815260200160008152602001606081525090565b604051806101a0016040528060006001600160a01b0316815260200160006001600160a01b03168152602001606081526020016060815260200160608152602001606081526020016060815260200160008152602001600015158152602001600081526020016060815260200160608152602001606081525090565b828054828255906000526020600020908101928215614b75579160200282015b82811115614b75578251825591602001919060010190614b5a565b50614b81929150614c48565b5090565b6040518060e001604052806060815260200160608152602001606081526020016060815260200160006001600160a01b0316815260200160008152602001606081525090565b508054614bd7906155d3565b6000825580601f10614be7575050565b601f016020900490600052602060002090810190614c059190614c48565b50565b828054828255906000526020600020908101928215614b755760005260206000209182015b82811115614b75578254825591600101919060010190614c2d565b5b80821115614b815760008155600101614c49565b634e487b7160e01b600052604160045260246000fd5b600082601f830112614c8457600080fd5b81356001600160401b0380821115614c9e57614c9e614c5d565b604051601f8301601f19908116603f01168101908282118183101715614cc657614cc6614c5d565b81604052838152866020858801011115614cdf57600080fd5b836020870160208301376000602085830101528094505050505092915050565b60008060008060808587031215614d1557600080fd5b84356001600160401b0380821115614d2c57600080fd5b614d3888838901614c73565b95506020870135915080821115614d4e57600080fd5b614d5a88838901614c73565b94506040870135915080821115614d7057600080fd5b614d7c88838901614c73565b93506060870135915080821115614d9257600080fd5b50614d9f87828801614c73565b91505092959194509250565b600060208284031215614dbd57600080fd5b81356001600160401b03811115614dd357600080fd5b614ddf84828501614c73565b949350505050565b60005b83811015614e02578181015183820152602001614dea565b50506000910152565b60008151808452614e23816020860160208601614de7565b601f01601f19169290920160200192915050565b600060208083018184528085518083526040925060408601915060408160051b87010184880160005b83811015614f0a57603f19898403018552815160e08151818652614e8682870182614e0b565b838b01516001600160a01b03908116888d01528a8501518883038c8a0152919350909150614eb48383614e0b565b925060609150808285015116828801525050608080830151818701525060a080830151818701525060c08083015192508582038187015250614ef68183614e0b565b968901969450505090860190600101614e60565b509098975050505050505050565b6020808252825182820181905260009190848201906040850190845b81811015614f5057835183529284019291840191600101614f34565b50909695505050505050565b60008151808452602080850194506020840160005b83811015614f8d57815187529582019590820190600101614f71565b509495945050505050565b80516001600160a01b0316825260006101a06020830151614fc460208601826001600160a01b03169052565b506040830151816040860152614fdc82860182614e0b565b91505060608301518482036060860152614ff68282614e0b565b915050608083015184820360808601526150108282614e0b565b91505060a083015184820360a086015261502a8282614e0b565b91505060c083015184820360c08601526150448282614e0b565b91505060e083015160e0850152610100808401516150658287018215159052565b50506101208381015190850152610140808401518583038287015261508a8382614e0b565b9250505061016080840151858303828701526150a68382614e0b565b9250505061018080840151858303828701526150c28382614f5c565b9695505050505050565b6020815260006150df6020830184614f98565b9392505050565b6000602082840312156150f857600080fd5b5035919050565b600080600080600060a0868803121561511757600080fd5b85356001600160401b038082111561512e57600080fd5b61513a89838a01614c73565b9650602088013591508082111561515057600080fd5b61515c89838a01614c73565b9550604088013591508082111561517257600080fd5b61517e89838a01614c73565b9450606088013591508082111561519457600080fd5b6151a089838a01614c73565b935060808801359150808211156151b657600080fd5b506151c388828901614c73565b9150509295509295909350565b80356001600160a01b0381168114614a6a57600080fd5b600080604083850312156151fa57600080fd5b82356001600160401b0381111561521057600080fd5b61521c85828601614c73565b92505061522b602084016151d0565b90509250929050565b600060208083016020845280855180835260408601915060408160051b87010192506020870160005b8281101561528b57603f19888603018452615279858351614f98565b9450928501929085019060010161525d565b5092979650505050505050565b600080604083850312156152ab57600080fd5b82356001600160401b038111156152c157600080fd5b6152cd85828601614c73565b95602094909401359450505050565b6000806000606084860312156152f157600080fd5b6152fa846151d0565b925060208401356001600160401b038082111561531657600080fd5b61532287838801614c73565b9350604086013591508082111561533857600080fd5b5061534586828701614c73565b9150509250925092565b6020815260006150df6020830184614e0b565b60006020828403121561537457600080fd5b6150df826151d0565b60a08152600061539060a0830188614e0b565b82810360208401526153a28188614e0b565b905082810360408401526153b68187614e0b565b905082810360608401526153ca8186614e0b565b9150508260808301529695505050505050565b60008282518085526020808601955060208260051b8401016020860160005b8481101561542a57601f19868403018952615418838351614e0b565b988401989250908301906001016153fc565b5090979650505050505050565b602081526000825160e06020840152615454610100840182614e0b565b90506020840151601f19808584030160408601526154728383614e0b565b9250604086015191508085840301606086015261548f8383614e0b565b925060608601519150808584030160808601526154ac8383614e0b565b925060018060a01b0360808701511660a086015260a086015160c086015260c08601519150808584030160e0860152506154e682826153dd565b95945050505050565b6040815260006155026040830185614e0b565b82810360208401526154e68185614e0b565b60008060006060848603121561552957600080fd5b615532846151d0565b9250615540602085016151d0565b915060408401356001600160401b0381111561555b57600080fd5b61534586828701614c73565b60e08152600061557a60e083018a614e0b565b6001600160a01b038981166020850152838203604085015261559c828a614e0b565b91508088166060850152508560808401528460a084015282810360c08401526155c58185614e0b565b9a9950505050505050505050565b600181811c908216806155e757607f821691505b60208210810361084b57634e487b7160e01b600052602260045260246000fd5b601f821115615653576000816000526020600020601f850160051c810160208610156156305750805b601f850160051c820191505b8181101561564f5782815560010161563c565b5050505b505050565b81516001600160401b0381111561567157615671614c5d565b6156858161567f84546155d3565b84615607565b602080601f8311600181146156ba57600084156156a25750858301515b600019600386901b1c1916600185901b17855561564f565b600085815260208120601f198616915b828110156156e9578886015182559484019460019091019084016156ca565b50858210156157075787850151600019600388901b60f8161c191681555b5050505050600190811b01905550565b60008251615729818460208701614de7565b9190910192915050565b634e487b7160e01b600052601160045260246000fd5b60006001600160ff1b01820161576157615761615733565b5060010190565b634e487b7160e01b600052603260045260246000fd5b6000815461578b816155d3565b600182811680156157a357600181146157b8576157e7565b60ff19841687528215158302870194506157e7565b8560005260208060002060005b858110156157de5781548a8201529084019082016157c5565b50505082870194505b5050505092915050565b60006150df828461577e565b8181038181111561150757611507615733565b600061581c828561577e565b600160fd1b81526154e6600182018561577e565b60006001820161576157615761615733565b602080825260169082015275105c9d1ddbdc9ac8191bd95cc81b9bdd08195e1a5cdd60521b604082015260600190565b6bffffffffffffffffffffffff198460601b1681526000835161589c816014850160208801614de7565b8351908301906158b3816014840160208801614de7565b0160140195945050505050565b8082018082111561150757611507615733565b6000816158e2576158e2615733565b506000190190565b8181036158f5575050565b6158ff82546155d3565b6001600160401b0381111561591657615916614c5d565b6159248161567f84546155d3565b6000601f82116001811461595857600083156159405750848201545b600019600385901b1c1916600184901b1784556159bd565b600085815260209020601f19841690600086815260209020845b838110156159925782860154825560019586019590910190602001615972565b50858310156159b05781850154600019600388901b60f8161c191681555b50505060018360011b0184555b5050505050565b634e487b7160e01b600052603160045260246000fd5b6000600160ff1b82016158e2576158e2615733565b808202811582820484141761150757611507615733565b60ff81811683821601908111156115075761150761573356fea264697066735822122058ca7d3847782691f8f67571aa838680930c1c251a3095094871ac35b0f97bfe64736f6c63430008180033",
  "linkReferences": {},
  "deployedLinkReferences": {}
}